{
  "contractName": "Lottery",
  "abi": [
    {
      "inputs": [],
      "stateMutability": "nonpayable",
      "type": "constructor"
    },
    {
      "inputs": [
        {
          "internalType": "uint256",
          "name": "",
          "type": "uint256"
        }
      ],
      "name": "history",
      "outputs": [
        {
          "internalType": "address payable",
          "name": "",
          "type": "address"
        }
      ],
      "stateMutability": "view",
      "type": "function"
    },
    {
      "inputs": [],
      "name": "lotteryId",
      "outputs": [
        {
          "internalType": "uint256",
          "name": "",
          "type": "uint256"
        }
      ],
      "stateMutability": "view",
      "type": "function"
    },
    {
      "inputs": [],
      "name": "owner",
      "outputs": [
        {
          "internalType": "address",
          "name": "",
          "type": "address"
        }
      ],
      "stateMutability": "view",
      "type": "function"
    },
    {
      "inputs": [
        {
          "internalType": "uint256",
          "name": "",
          "type": "uint256"
        }
      ],
      "name": "players",
      "outputs": [
        {
          "internalType": "address payable",
          "name": "",
          "type": "address"
        }
      ],
      "stateMutability": "view",
      "type": "function"
    },
    {
      "inputs": [
        {
          "internalType": "uint256",
          "name": "id",
          "type": "uint256"
        }
      ],
      "name": "getWinnerByLottery",
      "outputs": [
        {
          "internalType": "address payable",
          "name": "",
          "type": "address"
        }
      ],
      "stateMutability": "view",
      "type": "function"
    },
    {
      "inputs": [],
      "name": "entry",
      "outputs": [],
      "stateMutability": "payable",
      "type": "function"
    },
    {
      "inputs": [],
      "name": "getRandomNumber",
      "outputs": [
        {
          "internalType": "uint256",
          "name": "",
          "type": "uint256"
        }
      ],
      "stateMutability": "view",
      "type": "function"
    },
    {
      "inputs": [],
      "name": "getWinner",
      "outputs": [],
      "stateMutability": "nonpayable",
      "type": "function"
    },
    {
      "inputs": [],
      "name": "getPotBalance",
      "outputs": [
        {
          "internalType": "uint256",
          "name": "",
          "type": "uint256"
        }
      ],
      "stateMutability": "view",
      "type": "function"
    },
    {
      "inputs": [],
      "name": "getPlayers",
      "outputs": [
        {
          "internalType": "address payable[]",
          "name": "",
          "type": "address[]"
        }
      ],
      "stateMutability": "view",
      "type": "function"
    }
  ],
  "bytecode": "0x608060405234801561001057600080fd5b50336000806101000a81548173ffffffffffffffffffffffffffffffffffffffff021916908373ffffffffffffffffffffffffffffffffffffffff1602179055506001600281905550610c8d806100686000396000f3fe6080604052600436106100915760003560e01c80638e7ea5b2116100595780638e7ea5b21461015e578063a7a38f0b14610175578063dbdff2c1146101b2578063e580f47b146101dd578063f71d96cb1461020857610091565b8063281d098d1461009657806367f239dd146100d357806371e8fb57146100dd5780638b5b9ccc146101085780638da5cb5b14610133575b600080fd5b3480156100a257600080fd5b506100bd60048036038101906100b891906107d4565b610245565b6040516100ca9190610842565b60405180910390f35b6100db610282565b005b3480156100e957600080fd5b506100f2610330565b6040516100ff919061086c565b60405180910390f35b34801561011457600080fd5b5061011d610338565b60405161012a9190610945565b60405180910390f35b34801561013f57600080fd5b506101486103c6565b6040516101559190610988565b60405180910390f35b34801561016a57600080fd5b506101736103ea565b005b34801561018157600080fd5b5061019c600480360381019061019791906107d4565b610626565b6040516101a99190610842565b60405180910390f35b3480156101be57600080fd5b506101c7610659565b6040516101d4919061086c565b60405180910390f35b3480156101e957600080fd5b506101f26106ad565b6040516101ff919061086c565b60405180910390f35b34801561021457600080fd5b5061022f600480360381019061022a91906107d4565b6106b3565b60405161023c9190610842565b60405180910390f35b60006003600083815260200190815260200160002060009054906101000a900473ffffffffffffffffffffffffffffffffffffffff169050919050565b662386f26fc1000034116102cb576040517f08c379a00000000000000000000000000000000000000000000000000000000081526004016102c290610a00565b60405180910390fd5b6001339080600181540180825580915050600190039060005260206000200160009091909190916101000a81548173ffffffffffffffffffffffffffffffffffffffff021916908373ffffffffffffffffffffffffffffffffffffffff160217905550565b600047905090565b606060018054806020026020016040519081016040528092919081815260200182805480156103bc57602002820191906000526020600020905b8160009054906101000a900473ffffffffffffffffffffffffffffffffffffffff1673ffffffffffffffffffffffffffffffffffffffff1681526020019060010190808311610372575b5050505050905090565b60008054906101000a900473ffffffffffffffffffffffffffffffffffffffff1681565b60008054906101000a900473ffffffffffffffffffffffffffffffffffffffff1673ffffffffffffffffffffffffffffffffffffffff163373ffffffffffffffffffffffffffffffffffffffff1614610478576040517f08c379a000000000000000000000000000000000000000000000000000000000815260040161046f90610a6c565b60405180910390fd5b6000600180549050610488610659565b6104929190610abb565b9050600181815481106104a8576104a7610aec565b5b9060005260206000200160009054906101000a900473ffffffffffffffffffffffffffffffffffffffff1673ffffffffffffffffffffffffffffffffffffffff166108fc479081150290604051600060405180830381858888f19350505050158015610518573d6000803e3d6000fd5b506001818154811061052d5761052c610aec565b5b9060005260206000200160009054906101000a900473ffffffffffffffffffffffffffffffffffffffff1660036000600254815260200190815260200160002060006101000a81548173ffffffffffffffffffffffffffffffffffffffff021916908373ffffffffffffffffffffffffffffffffffffffff160217905550600260008154809291906105be90610b4a565b9190505550600067ffffffffffffffff8111156105de576105dd610b93565b5b60405190808252806020026020018201604052801561060c5781602001602082028036833780820191505090505b50600190805190602001906106229291906106f2565b5050565b60036020528060005260406000206000915054906101000a900473ffffffffffffffffffffffffffffffffffffffff1681565b60008060009054906101000a900473ffffffffffffffffffffffffffffffffffffffff164260405160200161068f929190610c2b565b6040516020818303038152906040528051906020012060001c905090565b60025481565b600181815481106106c357600080fd5b906000526020600020016000915054906101000a900473ffffffffffffffffffffffffffffffffffffffff1681565b82805482825590600052602060002090810192821561076b579160200282015b8281111561076a5782518260006101000a81548173ffffffffffffffffffffffffffffffffffffffff021916908373ffffffffffffffffffffffffffffffffffffffff16021790555091602001919060010190610712565b5b509050610778919061077c565b5090565b5b8082111561079557600081600090555060010161077d565b5090565b600080fd5b6000819050919050565b6107b18161079e565b81146107bc57600080fd5b50565b6000813590506107ce816107a8565b92915050565b6000602082840312156107ea576107e9610799565b5b60006107f8848285016107bf565b91505092915050565b600073ffffffffffffffffffffffffffffffffffffffff82169050919050565b600061082c82610801565b9050919050565b61083c81610821565b82525050565b60006020820190506108576000830184610833565b92915050565b6108668161079e565b82525050565b6000602082019050610881600083018461085d565b92915050565b600081519050919050565b600082825260208201905092915050565b6000819050602082019050919050565b6108bc81610821565b82525050565b60006108ce83836108b3565b60208301905092915050565b6000602082019050919050565b60006108f282610887565b6108fc8185610892565b9350610907836108a3565b8060005b8381101561093857815161091f88826108c2565b975061092a836108da565b92505060018101905061090b565b5085935050505092915050565b6000602082019050818103600083015261095f81846108e7565b905092915050565b600061097282610801565b9050919050565b61098281610967565b82525050565b600060208201905061099d6000830184610979565b92915050565b600082825260208201905092915050565b7f656e747279206665652063616e6e6f7420626520300000000000000000000000600082015250565b60006109ea6015836109a3565b91506109f5826109b4565b602082019050919050565b60006020820190508181036000830152610a19816109dd565b9050919050565b7f4f6e6c79206f776e65722063616e207069636b2077696e6e6572000000000000600082015250565b6000610a56601a836109a3565b9150610a6182610a20565b602082019050919050565b60006020820190508181036000830152610a8581610a49565b9050919050565b7f4e487b7100000000000000000000000000000000000000000000000000000000600052601260045260246000fd5b6000610ac68261079e565b9150610ad18361079e565b925082610ae157610ae0610a8c565b5b828206905092915050565b7f4e487b7100000000000000000000000000000000000000000000000000000000600052603260045260246000fd5b7f4e487b7100000000000000000000000000000000000000000000000000000000600052601160045260246000fd5b6000610b558261079e565b91507fffffffffffffffffffffffffffffffffffffffffffffffffffffffffffffffff821415610b8857610b87610b1b565b5b600182019050919050565b7f4e487b7100000000000000000000000000000000000000000000000000000000600052604160045260246000fd5b60008160601b9050919050565b6000610bda82610bc2565b9050919050565b6000610bec82610bcf565b9050919050565b610c04610bff82610967565b610be1565b82525050565b6000819050919050565b610c25610c208261079e565b610c0a565b82525050565b6000610c378285610bf3565b601482019150610c478284610c14565b602082019150819050939250505056fea2646970667358221220fdc7aecdcc194bf6320a7b36292929c0c91c40e6cb6e36a77a511056736add9264736f6c634300080c0033",
  "immutableReferences": {},
  "source": "// SPDX-License-Identifier: MIT\n\npragma solidity ^0.8.10;\n\ncontract Lottery {\n    address public owner;\n    address payable[] public players;\n    uint256 public lotteryId;\n    mapping(uint256 => address payable) public history;\n\n    constructor() {\n        owner = msg.sender;\n        lotteryId = 1;\n    }\n\n    function getWinnerByLottery(uint256 id)\n        public\n        view\n        returns (address payable)\n    {\n        return history[id];\n    }\n\n    function entry() public payable {\n        require(msg.value > 0.01 ether, \"entry fee cannot be 0\");\n        players.push(payable(msg.sender));\n    }\n\n    function getRandomNumber() public view returns (uint256) {\n        return uint256(keccak256(abi.encodePacked(owner, block.timestamp)));\n    }\n\n    function getWinner() public onlyOwner {\n        uint256 index = getRandomNumber() % players.length;\n        players[index].transfer(address(this).balance);\n        history[lotteryId] = players[index];\n\n        //to avoid rentrancy issue, any state to be updated should be updated after transfer function\n        lotteryId++;\n\n        //reset contract after winner is picked\n        players = new address payable[](0);\n    }\n\n    function getPotBalance() public view returns (uint256) {\n        return address(this).balance;\n    }\n\n    function getPlayers() public view returns (address payable[] memory) {\n        return players;\n    }\n\n    modifier onlyOwner() {\n        require(msg.sender == owner, \"Only owner can pick winner\");\n        _;\n    }\n}\n",
  "sourcePath": "/Volumes/D/java-script/lottery/contracts/Lottery.sol",
  "compiler": {
    "name": "solc",
    "version": "0.8.12+commit.f00d7308.Emscripten.clang"
  },
  "schemaVersion": "3.4.5",
  "updatedAt": "2022-04-26T14:11:06.283Z",
  "devdoc": {
    "kind": "dev",
    "methods": {},
    "version": 1
  },
  "userdoc": {
    "kind": "user",
    "methods": {},
    "version": 1
  }
}